:030000000205A254
:0C05A200787FE4F6D8FD7581200205E9A1
:10076100202020202020202020203A20202020206E
:1007710020202020200052483A202025202020201F
:0B07810020202020202020202020002D
:08089E00020C0190020E00C8DB
:06087A0012085C1208AF39
:07088000C2A5C2A7D2A52208
:0508AF00D2A7C2A52242
:0508B400D2A7C2A7223B
:0E085C00EF7F08A2E092A61208B4C313DFF5E6
:01086A00226B
:0E086B007F08C313A2A692E71208B4DFF5FFC0
:01087900225C
:1007DF00AE05AD071208807F8E12085CE4FF120889
:1007EF007AAF0512085CAF0612087A7F8E12085C8A
:0807FF007F8012085C0208AFC4
:0C08870012088012085C12086B1208AF07
:010893002242
:0A089400D2AF758901D2A9D28C22DF
:10073200C2928F807F057E00120743D2927F057E90
:0107420000B6
:10074300D3EF9400EE940040147D6E7C00ED1D7099
:0D075300011CED4C70F7EF1F70E61E80E3F7
:010760002276
:0808A700C290120732C2922236
:10082A00AE0EAF0F7C001202687C007D0A120268CD
:04083A00ED2430FF7A
:08083E00D290120732C292228F
:10084600C2927F381208A77F0C1208A77F061208EB
:06085600A77F010208A7C4
:10078C00E4FBEB90076193FF12083E12073F0BBB93
:10079C000FF07FC01208A7E4FBEB90077793FF12D2
:0907AC00083E12073F0BBB0FF0E1
:0107B5002221
:1006F800E4FFC291D293C294D291C291D293D29183
:10070800C291C293D291C291D293FED291C291303A
:10071800930D7480A806088002C313D8FC42070E04
:09072800BE08E8D294D291D293EC
:0107310022A5
:1007B6007FC31208A7AE0CAF0D7C007D6412083013
:1007C600AE0CAF0D7C007D0A1202687C007D0A1219
:0907D6000268ED2430FF02083E28
:100807007FCA1208A77F5212083E7F4C12083E7F0C
:100817003A12083E7D6412082A7D0A12082A7F25AB
:0308270002083E86
:1006B0007E237D037C187F8D120887AE077F891209
:1006C0000887AD077F87120887AC077F801208A7CD
:1006D0007F3212083E7F3312083E7F2D12083E7F84
:1006E0003012083E7F3512083E7F2D12083E7F31C2
:0806F00012083E7F3502083EAE
:1003AA00C200C20130B0030204DF7F1E7E001207C2
:1003BA004330B0FDE515C394024005E4F51580020B
:1003CA000515E51570030204D624FE700302045BCA
:1003DA000460030204DF7F0F1208A7806A30B06E40
:1003EA0020B1337F1E7E0012074320B12130B1FDB8
:1003FA00C3E50F94E6E50E94034008750E03750FE6
:10040A00E7800B740A250FF50FE4350EF50E120876
:10041A00077FCE1208A720B2C47F1E7E00120743B0
:10042A0020B22130B2FDD3E50F9401E50E940050BD
:10043A0007E4F50EF50F800C74F6250FF50F74FF1F
:10044A00350EF50E1208077FCE1208A7808F30B03E
:10045A00FD7F0F1208A7806A30B06E20B1337F1E6D
:10046A007E0012074320B12130B1FDC3E50D94E6A9
:10047A00E50C94034008750C03750DE7800B740AAC
:10048A00250DF50DE4350CF50C1207B67FC41208DC
:10049A00A720B2C47F1E7E0012074320B22130B2C9
:1004AA00FDD3E50D9401E50C94005007E4F50CF535
:1004BA000D800C74F6250DF50D74FF350CF50C1234
:1004CA0007B67FC41208A7808F30B0FD7F0C1208D0
:0504DA00A7A20192B78A
:0104DF0022FA
:1004E0001206F88F17E48F14F513F512F511AF14F7
:1004F000AE13AD12AC111201A97B667A66791E7833
:10050000411200037B337A337923784012010C8F38
:100510000B8E0A8D098C081201E78F148E138D1231
:100520008C11C374E89514F51474039513F513E452
:100530009512F512E49511F5117F8B1208A7E47B53
:1005400064FAF9F8AF14AE13AD12AC111202F9E46B
:100550007B0AFAF9F81202F9EB2430FF12083EE4A4
:100560007B0AFAF9F8AF14AE13AD12AC111202F90E
:10057000E47B0AFAF9F81202F9EB2430FF12083E84
:100580007F2E12083EE47B0AFAF9F8AF14AE13ADE1
:1005900012AC111202F9EB2430FF12083E7F250243
:0205A000083E13
:10062E0012084612078C1206B01207B61208077F80
:10063E00C87E001207431204E07F967E0012074325
:10064E001204E01203AAAE0CAF0DE4FCFDAB14AA2B
:10065E0013A912A811D31203994004D2B78017AE72
:10066E000EAF0FE4FCFDAB14AA13A912A811C3120E
:10067E0003995002C2B7AE0EAF0FE4FCFDAB14AA45
:10068E0013A912A811C3120399500BC2957F967E1F
:10069E0000120743D2951203AA7F967E00120743DB
:0206AE00809E2C
:10000300EC4D6011E8497017ED33EC3304600DE4F7
:10001300FCFFFEFD22E933E8330470F802025312B9
:10002300021E58046009E4CC2481500628500902BA
:10003300025D28400302025AC0E0EB4A7044B980D3
:1000430006D0E0FB020249EF4E701CBD8008EBFFB7
:10005300EAFEE9FD80EBE98DF0A4FEE5F00200EC99
:10006300E9CDF9EAFEEBFFEF89F0A4FCE5F0CE89D8
:10007300F0A42EFFE435F0CD89F0A42DFEE435F095
:100083008067EF4E7005BD80D780C3EF8BF0A4ACC3
:10009300F0EE8BF0A42CFCE435F0F8EF8AF0A42CFE
:1000A300E5F038FCE433CB8DF0A42CFCE5F03BF811
:1000B300EE8AF0A42CFCE5F038F8E433CF89F0A401
:1000C3002CFCE5F038CF3400CE89F0A42FFFE5F007
:1000D3003EFEE433C98DF0A42EFEE5F039CD8AF05F
:1000E300A42FFFE5F03EFEE43DFD33D0E0FB5007D7
:1000F3000BBB000F02025DEC2CFCEF33FFEE33FE73
:06010300ED33FD020235A0
:1001090002025DEC5D046005E859047003020253C4
:1001190012021E580460F6EC4860F2EC7004FDFE11
:10012900FF22C860DB2481C85009C39860025006C9
:1001390002025A9850CAF582E9294B4A7005AB82E6
:1001490002024975F0007C1A7880C3EF9BEE9AEDA4
:1001590099400DC3EF9BFFEE9AFEED99FDE842F041
:10016900DC23ACF0D0E0FFD0E0FED0E0FDAB822094
:10017900E7101BEB60BAEC2CFCEF33FFEE33FEED1E
:1001890033FD020235E803F830E705C0F075F000E9
:10019900EF2FFFEE33FEED33FD40B830E7C280AA02
:1001A90075F020800E75F010800575F0087D007ED1
:1001B900007F003392D530D50312038BEC33401006
:1001C900EF33FFEE33FEED33FDEC33FCD5F0ED22DA
:0E01D900E5F0247EA2D513CC92E7CDCEFF2216
:1001E700EDD2E7CD33EC3392D524814006E4FFFE10
:1001F700FDFC22FCE4CFCECDCC24E0501174FF806F
:10020700EDC3CC13CCCD13CDCE13CECF13CF04700B
:07021700F030D5DE02038B7D
:10021E00E9D2E7C933E833F892D5EDD2E7CD33EC26
:07022E0033FC5002B2D5229F
:10023500EC30E7100FBF000C0EBE00080DBD00042A
:100245000BEB6014A2D5EB13FCED92E7FD2274FFD6
:10025500FCFDFEFF22E480F8A2D574FF13FC7D802F
:03026500E480EF43
:1005AE0002062EE493A3F8E493A34003F68001F22F
:1005BE0008DFF48029E493A3F85407240CC8C3334E
:1005CE00C4540F4420C8834004F456800146F6DF1D
:1005DE00E4800B010204081020408090089EE47E07
:1005EE00019360BCA3FF543F30E509541FFEE49312
:1005FE00A360010ECF54C025E060A840B8E493A3D9
:10060E00FAE493A3F8E493A3C8C582C8CAC583CA03
:10061E00F0A3C8C582C8CAC583CADFE9DEE780BEBB
:0108A6000051
:10026800BC000BBE0029EF8DF084FFADF022E4CC7A
:10027800F875F008EF2FFFEE33FEEC33FCEE9DEC43
:10028800984005FCEE9DFE0FD5F0E9E4CEFD22ED89
:10029800F8F5F0EE8420D21CFEADF075F008EF2FD3
:1002A800FFED33FD4007985006D5F0F222C398FDC4
:0502B8000FD5F0EA2261
:1002BD0075F008758200EF2FFFEE33FECD33CDCCF8
:1002CD0033CCC58233C5829BED9AEC99E58298407B
:1002DD000CF582EE9BFEED9AFDEC99FC0FD5F0D658
:1002ED00E4CEFBE4CDFAE4CCF9A88222B800C1B982
:1002FD000059BA002DEC8BF084CFCECDFCE5F0CBC0
:10030D00F97818EF2FFFEE33FEED33FDEC33FCEBF8
:10031D0033FB10D703994004EB99FB0FD8E5E4F9B3
:10032D00FA227818EF2FFFEE33FEED33FDEC33FCA0
:10033D00C933C910D7059BE99A4007EC9BFCE99A94
:10034D00F90FD8E0E4C9FAE4CCFB2275F010EF2FD9
:10035D00FFEE33FEED33FDCC33CCC833C810D707D9
:10036D009BEC9AE899400AED9BFDEC9AFCE899F814
:0E037D000FD5F0DAE4CDFBE4CCFAE4C8F922A7
:0E038B00C3E49FFFE49EFEE49DFDE49CFC2283
:10039900EB9FF5F0EA9E42F0E99D42F0E89C45F0BA
:0103A9002231
:00000001FF
